{
	"docs.chain.link/samples/DataFeeds/DataConsumerV3.sol": {
		"DataConsumerV3": {
			"abi": [
				{
					"inputs": [],
					"stateMutability": "nonpayable",
					"type": "constructor"
				},
				{
					"inputs": [],
					"name": "getChainlinkDataFeedLatestAnswerBTC",
					"outputs": [
						{
							"internalType": "int256",
							"name": "",
							"type": "int256"
						}
					],
					"stateMutability": "view",
					"type": "function"
				},
				{
					"inputs": [],
					"name": "getChainlinkDataFeedLatestAnswerETH",
					"outputs": [
						{
							"internalType": "int256",
							"name": "",
							"type": "int256"
						}
					],
					"stateMutability": "view",
					"type": "function"
				},
				{
					"inputs": [
						{
							"internalType": "uint256",
							"name": "_moneda",
							"type": "uint256"
						}
					],
					"name": "getdatafeedvalor",
					"outputs": [],
					"stateMutability": "nonpayable",
					"type": "function"
				},
				{
					"inputs": [],
					"name": "moneda",
					"outputs": [
						{
							"internalType": "uint256",
							"name": "",
							"type": "uint256"
						}
					],
					"stateMutability": "view",
					"type": "function"
				}
			],
			"devdoc": {
				"kind": "dev",
				"methods": {},
				"version": 1
			},
			"evm": {
				"assembly": "    /* \"docs.chain.link/samples/DataFeeds/DataConsumerV3.sol\":611:2122  contract DataConsumerV3 {... */\n  mstore(0x40, 0x80)\n    /* \"docs.chain.link/samples/DataFeeds/DataConsumerV3.sol\":867:1144  constructor() {... */\n  callvalue\n  dup1\n  iszero\n  tag_1\n  jumpi\n  0x00\n  dup1\n  revert\ntag_1:\n  pop\n    /* \"docs.chain.link/samples/DataFeeds/DataConsumerV3.sol\":950:992  0x694AA1769357215DE4FAC081bf1f309aDC325306 */\n  0x694aa1769357215de4fac081bf1f309adc325306\n    /* \"docs.chain.link/samples/DataFeeds/DataConsumerV3.sol\":891:902  dataFeedETH */\n  0x00\n  dup1\n    /* \"docs.chain.link/samples/DataFeeds/DataConsumerV3.sol\":891:1007  dataFeedETH = AggregatorV3Interface(... */\n  0x0100\n  exp\n  dup2\n  sload\n  dup2\n  0xffffffffffffffffffffffffffffffffffffffff\n  mul\n  not\n  and\n  swap1\n  dup4\n  0xffffffffffffffffffffffffffffffffffffffff\n  and\n  mul\n  or\n  swap1\n  sstore\n  pop\n    /* \"docs.chain.link/samples/DataFeeds/DataConsumerV3.sol\":1067:1109  0x1b44F3514812d835EB1BDB0acB33d3fA3351Ee43 */\n  0x1b44f3514812d835eb1bdb0acb33d3fa3351ee43\n    /* \"docs.chain.link/samples/DataFeeds/DataConsumerV3.sol\":1018:1029  dataFeedBTC */\n  0x01\n  0x00\n    /* \"docs.chain.link/samples/DataFeeds/DataConsumerV3.sol\":1018:1137  dataFeedBTC = AggregatorV3Interface(... */\n  0x0100\n  exp\n  dup2\n  sload\n  dup2\n  0xffffffffffffffffffffffffffffffffffffffff\n  mul\n  not\n  and\n  swap1\n  dup4\n  0xffffffffffffffffffffffffffffffffffffffff\n  and\n  mul\n  or\n  swap1\n  sstore\n  pop\n    /* \"docs.chain.link/samples/DataFeeds/DataConsumerV3.sol\":611:2122  contract DataConsumerV3 {... */\n  dataSize(sub_0)\n  dup1\n  dataOffset(sub_0)\n  0x00\n  codecopy\n  0x00\n  return\nstop\n\nsub_0: assembly {\n        /* \"docs.chain.link/samples/DataFeeds/DataConsumerV3.sol\":611:2122  contract DataConsumerV3 {... */\n      mstore(0x40, 0x80)\n      callvalue\n      dup1\n      iszero\n      tag_1\n      jumpi\n      0x00\n      dup1\n      revert\n    tag_1:\n      pop\n      jumpi(tag_2, lt(calldatasize, 0x04))\n      shr(0xe0, calldataload(0x00))\n      dup1\n      0x4c186a36\n      eq\n      tag_3\n      jumpi\n      dup1\n      0x75bf0e54\n      eq\n      tag_4\n      jumpi\n      dup1\n      0xb8bef1fa\n      eq\n      tag_5\n      jumpi\n      dup1\n      0xf1cc1268\n      eq\n      tag_6\n      jumpi\n    tag_2:\n      0x00\n      dup1\n      revert\n        /* \"docs.chain.link/samples/DataFeeds/DataConsumerV3.sol\":1323:1716  function getChainlinkDataFeedLatestAnswerETH() public view returns (int) {... */\n    tag_3:\n      tag_7\n      tag_8\n      jump\t// in\n    tag_7:\n      mload(0x40)\n      tag_9\n      swap2\n      swap1\n      tag_10\n      jump\t// in\n    tag_9:\n      mload(0x40)\n      dup1\n      swap2\n      sub\n      swap1\n      return\n        /* \"docs.chain.link/samples/DataFeeds/DataConsumerV3.sol\":1176:1267  function getdatafeedvalor(uint256 _moneda)public ... */\n    tag_4:\n      tag_11\n      0x04\n      dup1\n      calldatasize\n      sub\n      dup2\n      add\n      swap1\n      tag_12\n      swap2\n      swap1\n      tag_13\n      jump\t// in\n    tag_12:\n      tag_14\n      jump\t// in\n    tag_11:\n      stop\n        /* \"docs.chain.link/samples/DataFeeds/DataConsumerV3.sol\":1721:2120  function getChainlinkDataFeedLatestAnswerBTC() public view returns (int) {... */\n    tag_5:\n      tag_15\n      tag_16\n      jump\t// in\n    tag_15:\n      mload(0x40)\n      tag_17\n      swap2\n      swap1\n      tag_10\n      jump\t// in\n    tag_17:\n      mload(0x40)\n      dup1\n      swap2\n      sub\n      swap1\n      return\n        /* \"docs.chain.link/samples/DataFeeds/DataConsumerV3.sol\":1149:1170  uint256 public moneda */\n    tag_6:\n      tag_18\n      tag_19\n      jump\t// in\n    tag_18:\n      mload(0x40)\n      tag_20\n      swap2\n      swap1\n      tag_21\n      jump\t// in\n    tag_20:\n      mload(0x40)\n      dup1\n      swap2\n      sub\n      swap1\n      return\n        /* \"docs.chain.link/samples/DataFeeds/DataConsumerV3.sol\":1323:1716  function getChainlinkDataFeedLatestAnswerETH() public view returns (int) {... */\n    tag_8:\n        /* \"docs.chain.link/samples/DataFeeds/DataConsumerV3.sol\":1391:1394  int */\n      0x00\n        /* \"docs.chain.link/samples/DataFeeds/DataConsumerV3.sol\":1481:1494  int answerETH */\n      dup1\n        /* \"docs.chain.link/samples/DataFeeds/DataConsumerV3.sol\":1611:1622  dataFeedETH */\n      0x00\n      dup1\n      sload\n      swap1\n      0x0100\n      exp\n      swap1\n      div\n      0xffffffffffffffffffffffffffffffffffffffff\n      and\n        /* \"docs.chain.link/samples/DataFeeds/DataConsumerV3.sol\":1611:1638  dataFeedETH.latestRoundData */\n      0xffffffffffffffffffffffffffffffffffffffff\n      and\n      0xfeaf968c\n        /* \"docs.chain.link/samples/DataFeeds/DataConsumerV3.sol\":1611:1640  dataFeedETH.latestRoundData() */\n      mload(0x40)\n      dup2\n      0xffffffff\n      and\n      0xe0\n      shl\n      dup2\n      mstore\n      0x04\n      add\n      0xa0\n      mload(0x40)\n      dup1\n      dup4\n      sub\n      dup2\n      dup7\n      gas\n      staticcall\n      iszero\n      dup1\n      iszero\n      tag_24\n      jumpi\n      returndatasize\n      0x00\n      dup1\n      returndatacopy\n      revert(0x00, returndatasize)\n    tag_24:\n      pop\n      pop\n      pop\n      pop\n      mload(0x40)\n      returndatasize\n      not(0x1f)\n      0x1f\n      dup3\n      add\n      and\n      dup3\n      add\n      dup1\n      0x40\n      mstore\n      pop\n      dup2\n      add\n      swap1\n      tag_25\n      swap2\n      swap1\n      tag_26\n      jump\t// in\n    tag_25:\n        /* \"docs.chain.link/samples/DataFeeds/DataConsumerV3.sol\":1433:1640  (... */\n      pop\n      pop\n      pop\n      swap2\n      pop\n      pop\n        /* \"docs.chain.link/samples/DataFeeds/DataConsumerV3.sol\":1665:1674  answerETH */\n      dup1\n        /* \"docs.chain.link/samples/DataFeeds/DataConsumerV3.sol\":1658:1674  return answerETH */\n      swap2\n      pop\n      pop\n        /* \"docs.chain.link/samples/DataFeeds/DataConsumerV3.sol\":1323:1716  function getChainlinkDataFeedLatestAnswerETH() public view returns (int) {... */\n      swap1\n      jump\t// out\n        /* \"docs.chain.link/samples/DataFeeds/DataConsumerV3.sol\":1176:1267  function getdatafeedvalor(uint256 _moneda)public ... */\n    tag_14:\n        /* \"docs.chain.link/samples/DataFeeds/DataConsumerV3.sol\":1248:1255  _moneda */\n      dup1\n        /* \"docs.chain.link/samples/DataFeeds/DataConsumerV3.sol\":1240:1246  moneda */\n      0x02\n        /* \"docs.chain.link/samples/DataFeeds/DataConsumerV3.sol\":1240:1255  moneda =_moneda */\n      dup2\n      swap1\n      sstore\n      pop\n        /* \"docs.chain.link/samples/DataFeeds/DataConsumerV3.sol\":1176:1267  function getdatafeedvalor(uint256 _moneda)public ... */\n      pop\n      jump\t// out\n        /* \"docs.chain.link/samples/DataFeeds/DataConsumerV3.sol\":1721:2120  function getChainlinkDataFeedLatestAnswerBTC() public view returns (int) {... */\n    tag_16:\n        /* \"docs.chain.link/samples/DataFeeds/DataConsumerV3.sol\":1789:1792  int */\n      0x00\n        /* \"docs.chain.link/samples/DataFeeds/DataConsumerV3.sol\":1890:1903  int answerBTC */\n      dup1\n        /* \"docs.chain.link/samples/DataFeeds/DataConsumerV3.sol\":2020:2031  dataFeedBTC */\n      0x01\n      0x00\n      swap1\n      sload\n      swap1\n      0x0100\n      exp\n      swap1\n      div\n      0xffffffffffffffffffffffffffffffffffffffff\n      and\n        /* \"docs.chain.link/samples/DataFeeds/DataConsumerV3.sol\":2020:2047  dataFeedBTC.latestRoundData */\n      0xffffffffffffffffffffffffffffffffffffffff\n      and\n      0xfeaf968c\n        /* \"docs.chain.link/samples/DataFeeds/DataConsumerV3.sol\":2020:2049  dataFeedBTC.latestRoundData() */\n      mload(0x40)\n      dup2\n      0xffffffff\n      and\n      0xe0\n      shl\n      dup2\n      mstore\n      0x04\n      add\n      0xa0\n      mload(0x40)\n      dup1\n      dup4\n      sub\n      dup2\n      dup7\n      gas\n      staticcall\n      iszero\n      dup1\n      iszero\n      tag_30\n      jumpi\n      returndatasize\n      0x00\n      dup1\n      returndatacopy\n      revert(0x00, returndatasize)\n    tag_30:\n      pop\n      pop\n      pop\n      pop\n      mload(0x40)\n      returndatasize\n      not(0x1f)\n      0x1f\n      dup3\n      add\n      and\n      dup3\n      add\n      dup1\n      0x40\n      mstore\n      pop\n      dup2\n      add\n      swap1\n      tag_31\n      swap2\n      swap1\n      tag_26\n      jump\t// in\n    tag_31:\n        /* \"docs.chain.link/samples/DataFeeds/DataConsumerV3.sol\":1842:2049  (... */\n      pop\n      pop\n      pop\n      swap2\n      pop\n      pop\n        /* \"docs.chain.link/samples/DataFeeds/DataConsumerV3.sol\":2087:2096  answerBTC */\n      dup1\n        /* \"docs.chain.link/samples/DataFeeds/DataConsumerV3.sol\":2080:2096  return answerBTC */\n      swap2\n      pop\n      pop\n        /* \"docs.chain.link/samples/DataFeeds/DataConsumerV3.sol\":1721:2120  function getChainlinkDataFeedLatestAnswerBTC() public view returns (int) {... */\n      swap1\n      jump\t// out\n        /* \"docs.chain.link/samples/DataFeeds/DataConsumerV3.sol\":1149:1170  uint256 public moneda */\n    tag_19:\n      sload(0x02)\n      dup2\n      jump\t// out\n        /* \"#utility.yul\":7:83   */\n    tag_32:\n        /* \"#utility.yul\":43:50   */\n      0x00\n        /* \"#utility.yul\":72:77   */\n      dup2\n        /* \"#utility.yul\":61:77   */\n      swap1\n      pop\n        /* \"#utility.yul\":7:83   */\n      swap2\n      swap1\n      pop\n      jump\t// out\n        /* \"#utility.yul\":89:204   */\n    tag_33:\n        /* \"#utility.yul\":174:197   */\n      tag_50\n        /* \"#utility.yul\":191:196   */\n      dup2\n        /* \"#utility.yul\":174:197   */\n      tag_32\n      jump\t// in\n    tag_50:\n        /* \"#utility.yul\":169:172   */\n      dup3\n        /* \"#utility.yul\":162:198   */\n      mstore\n        /* \"#utility.yul\":89:204   */\n      pop\n      pop\n      jump\t// out\n        /* \"#utility.yul\":210:428   */\n    tag_10:\n        /* \"#utility.yul\":301:305   */\n      0x00\n        /* \"#utility.yul\":339:341   */\n      0x20\n        /* \"#utility.yul\":328:337   */\n      dup3\n        /* \"#utility.yul\":324:342   */\n      add\n        /* \"#utility.yul\":316:342   */\n      swap1\n      pop\n        /* \"#utility.yul\":352:421   */\n      tag_52\n        /* \"#utility.yul\":418:419   */\n      0x00\n        /* \"#utility.yul\":407:416   */\n      dup4\n        /* \"#utility.yul\":403:420   */\n      add\n        /* \"#utility.yul\":394:400   */\n      dup5\n        /* \"#utility.yul\":352:421   */\n      tag_33\n      jump\t// in\n    tag_52:\n        /* \"#utility.yul\":210:428   */\n      swap3\n      swap2\n      pop\n      pop\n      jump\t// out\n        /* \"#utility.yul\":515:632   */\n    tag_35:\n        /* \"#utility.yul\":624:625   */\n      0x00\n        /* \"#utility.yul\":621:622   */\n      dup1\n        /* \"#utility.yul\":614:626   */\n      revert\n        /* \"#utility.yul\":761:838   */\n    tag_37:\n        /* \"#utility.yul\":798:805   */\n      0x00\n        /* \"#utility.yul\":827:832   */\n      dup2\n        /* \"#utility.yul\":816:832   */\n      swap1\n      pop\n        /* \"#utility.yul\":761:838   */\n      swap2\n      swap1\n      pop\n      jump\t// out\n        /* \"#utility.yul\":844:966   */\n    tag_38:\n        /* \"#utility.yul\":917:941   */\n      tag_58\n        /* \"#utility.yul\":935:940   */\n      dup2\n        /* \"#utility.yul\":917:941   */\n      tag_37\n      jump\t// in\n    tag_58:\n        /* \"#utility.yul\":910:915   */\n      dup2\n        /* \"#utility.yul\":907:942   */\n      eq\n        /* \"#utility.yul\":897:960   */\n      tag_59\n      jumpi\n        /* \"#utility.yul\":956:957   */\n      0x00\n        /* \"#utility.yul\":953:954   */\n      dup1\n        /* \"#utility.yul\":946:958   */\n      revert\n        /* \"#utility.yul\":897:960   */\n    tag_59:\n        /* \"#utility.yul\":844:966   */\n      pop\n      jump\t// out\n        /* \"#utility.yul\":972:1111   */\n    tag_39:\n        /* \"#utility.yul\":1018:1023   */\n      0x00\n        /* \"#utility.yul\":1056:1062   */\n      dup2\n        /* \"#utility.yul\":1043:1063   */\n      calldataload\n        /* \"#utility.yul\":1034:1063   */\n      swap1\n      pop\n        /* \"#utility.yul\":1072:1105   */\n      tag_61\n        /* \"#utility.yul\":1099:1104   */\n      dup2\n        /* \"#utility.yul\":1072:1105   */\n      tag_38\n      jump\t// in\n    tag_61:\n        /* \"#utility.yul\":972:1111   */\n      swap3\n      swap2\n      pop\n      pop\n      jump\t// out\n        /* \"#utility.yul\":1117:1446   */\n    tag_13:\n        /* \"#utility.yul\":1176:1182   */\n      0x00\n        /* \"#utility.yul\":1225:1227   */\n      0x20\n        /* \"#utility.yul\":1213:1222   */\n      dup3\n        /* \"#utility.yul\":1204:1211   */\n      dup5\n        /* \"#utility.yul\":1200:1223   */\n      sub\n        /* \"#utility.yul\":1196:1228   */\n      slt\n        /* \"#utility.yul\":1193:1312   */\n      iszero\n      tag_63\n      jumpi\n        /* \"#utility.yul\":1231:1310   */\n      tag_64\n      tag_35\n      jump\t// in\n    tag_64:\n        /* \"#utility.yul\":1193:1312   */\n    tag_63:\n        /* \"#utility.yul\":1351:1352   */\n      0x00\n        /* \"#utility.yul\":1376:1429   */\n      tag_65\n        /* \"#utility.yul\":1421:1428   */\n      dup5\n        /* \"#utility.yul\":1412:1418   */\n      dup3\n        /* \"#utility.yul\":1401:1410   */\n      dup6\n        /* \"#utility.yul\":1397:1419   */\n      add\n        /* \"#utility.yul\":1376:1429   */\n      tag_39\n      jump\t// in\n    tag_65:\n        /* \"#utility.yul\":1366:1429   */\n      swap2\n      pop\n        /* \"#utility.yul\":1322:1439   */\n      pop\n        /* \"#utility.yul\":1117:1446   */\n      swap3\n      swap2\n      pop\n      pop\n      jump\t// out\n        /* \"#utility.yul\":1452:1570   */\n    tag_40:\n        /* \"#utility.yul\":1539:1563   */\n      tag_67\n        /* \"#utility.yul\":1557:1562   */\n      dup2\n        /* \"#utility.yul\":1539:1563   */\n      tag_37\n      jump\t// in\n    tag_67:\n        /* \"#utility.yul\":1534:1537   */\n      dup3\n        /* \"#utility.yul\":1527:1564   */\n      mstore\n        /* \"#utility.yul\":1452:1570   */\n      pop\n      pop\n      jump\t// out\n        /* \"#utility.yul\":1576:1798   */\n    tag_21:\n        /* \"#utility.yul\":1669:1673   */\n      0x00\n        /* \"#utility.yul\":1707:1709   */\n      0x20\n        /* \"#utility.yul\":1696:1705   */\n      dup3\n        /* \"#utility.yul\":1692:1710   */\n      add\n        /* \"#utility.yul\":1684:1710   */\n      swap1\n      pop\n        /* \"#utility.yul\":1720:1791   */\n      tag_69\n        /* \"#utility.yul\":1788:1789   */\n      0x00\n        /* \"#utility.yul\":1777:1786   */\n      dup4\n        /* \"#utility.yul\":1773:1790   */\n      add\n        /* \"#utility.yul\":1764:1770   */\n      dup5\n        /* \"#utility.yul\":1720:1791   */\n      tag_40\n      jump\t// in\n    tag_69:\n        /* \"#utility.yul\":1576:1798   */\n      swap3\n      swap2\n      pop\n      pop\n      jump\t// out\n        /* \"#utility.yul\":1804:1909   */\n    tag_41:\n        /* \"#utility.yul\":1840:1847   */\n      0x00\n        /* \"#utility.yul\":1880:1902   */\n      0xffffffffffffffffffff\n        /* \"#utility.yul\":1873:1878   */\n      dup3\n        /* \"#utility.yul\":1869:1903   */\n      and\n        /* \"#utility.yul\":1858:1903   */\n      swap1\n      pop\n        /* \"#utility.yul\":1804:1909   */\n      swap2\n      swap1\n      pop\n      jump\t// out\n        /* \"#utility.yul\":1915:2035   */\n    tag_42:\n        /* \"#utility.yul\":1987:2010   */\n      tag_72\n        /* \"#utility.yul\":2004:2009   */\n      dup2\n        /* \"#utility.yul\":1987:2010   */\n      tag_41\n      jump\t// in\n    tag_72:\n        /* \"#utility.yul\":1980:1985   */\n      dup2\n        /* \"#utility.yul\":1977:2011   */\n      eq\n        /* \"#utility.yul\":1967:2029   */\n      tag_73\n      jumpi\n        /* \"#utility.yul\":2025:2026   */\n      0x00\n        /* \"#utility.yul\":2022:2023   */\n      dup1\n        /* \"#utility.yul\":2015:2027   */\n      revert\n        /* \"#utility.yul\":1967:2029   */\n    tag_73:\n        /* \"#utility.yul\":1915:2035   */\n      pop\n      jump\t// out\n        /* \"#utility.yul\":2041:2182   */\n    tag_43:\n        /* \"#utility.yul\":2097:2102   */\n      0x00\n        /* \"#utility.yul\":2128:2134   */\n      dup2\n        /* \"#utility.yul\":2122:2135   */\n      mload\n        /* \"#utility.yul\":2113:2135   */\n      swap1\n      pop\n        /* \"#utility.yul\":2144:2176   */\n      tag_75\n        /* \"#utility.yul\":2170:2175   */\n      dup2\n        /* \"#utility.yul\":2144:2176   */\n      tag_42\n      jump\t// in\n    tag_75:\n        /* \"#utility.yul\":2041:2182   */\n      swap3\n      swap2\n      pop\n      pop\n      jump\t// out\n        /* \"#utility.yul\":2188:2308   */\n    tag_44:\n        /* \"#utility.yul\":2260:2283   */\n      tag_77\n        /* \"#utility.yul\":2277:2282   */\n      dup2\n        /* \"#utility.yul\":2260:2283   */\n      tag_32\n      jump\t// in\n    tag_77:\n        /* \"#utility.yul\":2253:2258   */\n      dup2\n        /* \"#utility.yul\":2250:2284   */\n      eq\n        /* \"#utility.yul\":2240:2302   */\n      tag_78\n      jumpi\n        /* \"#utility.yul\":2298:2299   */\n      0x00\n        /* \"#utility.yul\":2295:2296   */\n      dup1\n        /* \"#utility.yul\":2288:2300   */\n      revert\n        /* \"#utility.yul\":2240:2302   */\n    tag_78:\n        /* \"#utility.yul\":2188:2308   */\n      pop\n      jump\t// out\n        /* \"#utility.yul\":2314:2455   */\n    tag_45:\n        /* \"#utility.yul\":2370:2375   */\n      0x00\n        /* \"#utility.yul\":2401:2407   */\n      dup2\n        /* \"#utility.yul\":2395:2408   */\n      mload\n        /* \"#utility.yul\":2386:2408   */\n      swap1\n      pop\n        /* \"#utility.yul\":2417:2449   */\n      tag_80\n        /* \"#utility.yul\":2443:2448   */\n      dup2\n        /* \"#utility.yul\":2417:2449   */\n      tag_44\n      jump\t// in\n    tag_80:\n        /* \"#utility.yul\":2314:2455   */\n      swap3\n      swap2\n      pop\n      pop\n      jump\t// out\n        /* \"#utility.yul\":2461:2604   */\n    tag_46:\n        /* \"#utility.yul\":2518:2523   */\n      0x00\n        /* \"#utility.yul\":2549:2555   */\n      dup2\n        /* \"#utility.yul\":2543:2556   */\n      mload\n        /* \"#utility.yul\":2534:2556   */\n      swap1\n      pop\n        /* \"#utility.yul\":2565:2598   */\n      tag_82\n        /* \"#utility.yul\":2592:2597   */\n      dup2\n        /* \"#utility.yul\":2565:2598   */\n      tag_38\n      jump\t// in\n    tag_82:\n        /* \"#utility.yul\":2461:2604   */\n      swap3\n      swap2\n      pop\n      pop\n      jump\t// out\n        /* \"#utility.yul\":2610:3581   */\n    tag_26:\n        /* \"#utility.yul\":2713:2719   */\n      0x00\n        /* \"#utility.yul\":2721:2727   */\n      dup1\n        /* \"#utility.yul\":2729:2735   */\n      0x00\n        /* \"#utility.yul\":2737:2743   */\n      dup1\n        /* \"#utility.yul\":2745:2751   */\n      0x00\n        /* \"#utility.yul\":2794:2797   */\n      0xa0\n        /* \"#utility.yul\":2782:2791   */\n      dup7\n        /* \"#utility.yul\":2773:2780   */\n      dup9\n        /* \"#utility.yul\":2769:2792   */\n      sub\n        /* \"#utility.yul\":2765:2798   */\n      slt\n        /* \"#utility.yul\":2762:2882   */\n      iszero\n      tag_84\n      jumpi\n        /* \"#utility.yul\":2801:2880   */\n      tag_85\n      tag_35\n      jump\t// in\n    tag_85:\n        /* \"#utility.yul\":2762:2882   */\n    tag_84:\n        /* \"#utility.yul\":2921:2922   */\n      0x00\n        /* \"#utility.yul\":2946:3009   */\n      tag_86\n        /* \"#utility.yul\":3001:3008   */\n      dup9\n        /* \"#utility.yul\":2992:2998   */\n      dup3\n        /* \"#utility.yul\":2981:2990   */\n      dup10\n        /* \"#utility.yul\":2977:2999   */\n      add\n        /* \"#utility.yul\":2946:3009   */\n      tag_43\n      jump\t// in\n    tag_86:\n        /* \"#utility.yul\":2936:3009   */\n      swap6\n      pop\n        /* \"#utility.yul\":2892:3019   */\n      pop\n        /* \"#utility.yul\":3058:3060   */\n      0x20\n        /* \"#utility.yul\":3084:3147   */\n      tag_87\n        /* \"#utility.yul\":3139:3146   */\n      dup9\n        /* \"#utility.yul\":3130:3136   */\n      dup3\n        /* \"#utility.yul\":3119:3128   */\n      dup10\n        /* \"#utility.yul\":3115:3137   */\n      add\n        /* \"#utility.yul\":3084:3147   */\n      tag_45\n      jump\t// in\n    tag_87:\n        /* \"#utility.yul\":3074:3147   */\n      swap5\n      pop\n        /* \"#utility.yul\":3029:3157   */\n      pop\n        /* \"#utility.yul\":3196:3198   */\n      0x40\n        /* \"#utility.yul\":3222:3286   */\n      tag_88\n        /* \"#utility.yul\":3278:3285   */\n      dup9\n        /* \"#utility.yul\":3269:3275   */\n      dup3\n        /* \"#utility.yul\":3258:3267   */\n      dup10\n        /* \"#utility.yul\":3254:3276   */\n      add\n        /* \"#utility.yul\":3222:3286   */\n      tag_46\n      jump\t// in\n    tag_88:\n        /* \"#utility.yul\":3212:3286   */\n      swap4\n      pop\n        /* \"#utility.yul\":3167:3296   */\n      pop\n        /* \"#utility.yul\":3335:3337   */\n      0x60\n        /* \"#utility.yul\":3361:3425   */\n      tag_89\n        /* \"#utility.yul\":3417:3424   */\n      dup9\n        /* \"#utility.yul\":3408:3414   */\n      dup3\n        /* \"#utility.yul\":3397:3406   */\n      dup10\n        /* \"#utility.yul\":3393:3415   */\n      add\n        /* \"#utility.yul\":3361:3425   */\n      tag_46\n      jump\t// in\n    tag_89:\n        /* \"#utility.yul\":3351:3425   */\n      swap3\n      pop\n        /* \"#utility.yul\":3306:3435   */\n      pop\n        /* \"#utility.yul\":3474:3477   */\n      0x80\n        /* \"#utility.yul\":3501:3564   */\n      tag_90\n        /* \"#utility.yul\":3556:3563   */\n      dup9\n        /* \"#utility.yul\":3547:3553   */\n      dup3\n        /* \"#utility.yul\":3536:3545   */\n      dup10\n        /* \"#utility.yul\":3532:3554   */\n      add\n        /* \"#utility.yul\":3501:3564   */\n      tag_43\n      jump\t// in\n    tag_90:\n        /* \"#utility.yul\":3491:3564   */\n      swap2\n      pop\n        /* \"#utility.yul\":3445:3574   */\n      pop\n        /* \"#utility.yul\":2610:3581   */\n      swap3\n      swap6\n      pop\n      swap3\n      swap6\n      swap1\n      swap4\n      pop\n      jump\t// out\n\n    auxdata: 0xa264697066735822122017392032cf38b59049af1f4a19955ff10bcfae3b1b3ca8d5da811342da94ad0364736f6c63430008120033\n}\n",
				"bytecode": {
					"linkReferences": {},
					"object": "608060405234801561001057600080fd5b5073694aa1769357215de4fac081bf1f309adc3253066000806101000a81548173ffffffffffffffffffffffffffffffffffffffff021916908373ffffffffffffffffffffffffffffffffffffffff160217905550731b44f3514812d835eb1bdb0acb33d3fa3351ee43600160006101000a81548173ffffffffffffffffffffffffffffffffffffffff021916908373ffffffffffffffffffffffffffffffffffffffff160217905550610411806100c96000396000f3fe608060405234801561001057600080fd5b506004361061004c5760003560e01c80634c186a361461005157806375bf0e541461006f578063b8bef1fa1461008b578063f1cc1268146100a9575b600080fd5b6100596100c7565b6040516100669190610230565b60405180910390f35b61008960048036038101906100849190610286565b610166565b005b610093610170565b6040516100a09190610230565b60405180910390f35b6100b1610211565b6040516100be91906102c2565b60405180910390f35b60008060008054906101000a900473ffffffffffffffffffffffffffffffffffffffff1673ffffffffffffffffffffffffffffffffffffffff1663feaf968c6040518163ffffffff1660e01b815260040160a060405180830381865afa158015610135573d6000803e3d6000fd5b505050506040513d601f19601f820116820180604052508101906101599190610360565b5050509150508091505090565b8060028190555050565b600080600160009054906101000a900473ffffffffffffffffffffffffffffffffffffffff1673ffffffffffffffffffffffffffffffffffffffff1663feaf968c6040518163ffffffff1660e01b815260040160a060405180830381865afa1580156101e0573d6000803e3d6000fd5b505050506040513d601f19601f820116820180604052508101906102049190610360565b5050509150508091505090565b60025481565b6000819050919050565b61022a81610217565b82525050565b60006020820190506102456000830184610221565b92915050565b600080fd5b6000819050919050565b61026381610250565b811461026e57600080fd5b50565b6000813590506102808161025a565b92915050565b60006020828403121561029c5761029b61024b565b5b60006102aa84828501610271565b91505092915050565b6102bc81610250565b82525050565b60006020820190506102d760008301846102b3565b92915050565b600069ffffffffffffffffffff82169050919050565b6102fc816102dd565b811461030757600080fd5b50565b600081519050610319816102f3565b92915050565b61032881610217565b811461033357600080fd5b50565b6000815190506103458161031f565b92915050565b60008151905061035a8161025a565b92915050565b600080600080600060a0868803121561037c5761037b61024b565b5b600061038a8882890161030a565b955050602061039b88828901610336565b94505060406103ac8882890161034b565b93505060606103bd8882890161034b565b92505060806103ce8882890161030a565b915050929550929590935056fea264697066735822122017392032cf38b59049af1f4a19955ff10bcfae3b1b3ca8d5da811342da94ad0364736f6c63430008120033",
					"opcodes": "PUSH1 0x80 PUSH1 0x40 MSTORE CALLVALUE DUP1 ISZERO PUSH2 0x10 JUMPI PUSH1 0x0 DUP1 REVERT JUMPDEST POP PUSH20 0x694AA1769357215DE4FAC081BF1F309ADC325306 PUSH1 0x0 DUP1 PUSH2 0x100 EXP DUP2 SLOAD DUP2 PUSH20 0xFFFFFFFFFFFFFFFFFFFFFFFFFFFFFFFFFFFFFFFF MUL NOT AND SWAP1 DUP4 PUSH20 0xFFFFFFFFFFFFFFFFFFFFFFFFFFFFFFFFFFFFFFFF AND MUL OR SWAP1 SSTORE POP PUSH20 0x1B44F3514812D835EB1BDB0ACB33D3FA3351EE43 PUSH1 0x1 PUSH1 0x0 PUSH2 0x100 EXP DUP2 SLOAD DUP2 PUSH20 0xFFFFFFFFFFFFFFFFFFFFFFFFFFFFFFFFFFFFFFFF MUL NOT AND SWAP1 DUP4 PUSH20 0xFFFFFFFFFFFFFFFFFFFFFFFFFFFFFFFFFFFFFFFF AND MUL OR SWAP1 SSTORE POP PUSH2 0x411 DUP1 PUSH2 0xC9 PUSH1 0x0 CODECOPY PUSH1 0x0 RETURN INVALID PUSH1 0x80 PUSH1 0x40 MSTORE CALLVALUE DUP1 ISZERO PUSH2 0x10 JUMPI PUSH1 0x0 DUP1 REVERT JUMPDEST POP PUSH1 0x4 CALLDATASIZE LT PUSH2 0x4C JUMPI PUSH1 0x0 CALLDATALOAD PUSH1 0xE0 SHR DUP1 PUSH4 0x4C186A36 EQ PUSH2 0x51 JUMPI DUP1 PUSH4 0x75BF0E54 EQ PUSH2 0x6F JUMPI DUP1 PUSH4 0xB8BEF1FA EQ PUSH2 0x8B JUMPI DUP1 PUSH4 0xF1CC1268 EQ PUSH2 0xA9 JUMPI JUMPDEST PUSH1 0x0 DUP1 REVERT JUMPDEST PUSH2 0x59 PUSH2 0xC7 JUMP JUMPDEST PUSH1 0x40 MLOAD PUSH2 0x66 SWAP2 SWAP1 PUSH2 0x230 JUMP JUMPDEST PUSH1 0x40 MLOAD DUP1 SWAP2 SUB SWAP1 RETURN JUMPDEST PUSH2 0x89 PUSH1 0x4 DUP1 CALLDATASIZE SUB DUP2 ADD SWAP1 PUSH2 0x84 SWAP2 SWAP1 PUSH2 0x286 JUMP JUMPDEST PUSH2 0x166 JUMP JUMPDEST STOP JUMPDEST PUSH2 0x93 PUSH2 0x170 JUMP JUMPDEST PUSH1 0x40 MLOAD PUSH2 0xA0 SWAP2 SWAP1 PUSH2 0x230 JUMP JUMPDEST PUSH1 0x40 MLOAD DUP1 SWAP2 SUB SWAP1 RETURN JUMPDEST PUSH2 0xB1 PUSH2 0x211 JUMP JUMPDEST PUSH1 0x40 MLOAD PUSH2 0xBE SWAP2 SWAP1 PUSH2 0x2C2 JUMP JUMPDEST PUSH1 0x40 MLOAD DUP1 SWAP2 SUB SWAP1 RETURN JUMPDEST PUSH1 0x0 DUP1 PUSH1 0x0 DUP1 SLOAD SWAP1 PUSH2 0x100 EXP SWAP1 DIV PUSH20 0xFFFFFFFFFFFFFFFFFFFFFFFFFFFFFFFFFFFFFFFF AND PUSH20 0xFFFFFFFFFFFFFFFFFFFFFFFFFFFFFFFFFFFFFFFF AND PUSH4 0xFEAF968C PUSH1 0x40 MLOAD DUP2 PUSH4 0xFFFFFFFF AND PUSH1 0xE0 SHL DUP2 MSTORE PUSH1 0x4 ADD PUSH1 0xA0 PUSH1 0x40 MLOAD DUP1 DUP4 SUB DUP2 DUP7 GAS STATICCALL ISZERO DUP1 ISZERO PUSH2 0x135 JUMPI RETURNDATASIZE PUSH1 0x0 DUP1 RETURNDATACOPY RETURNDATASIZE PUSH1 0x0 REVERT JUMPDEST POP POP POP POP PUSH1 0x40 MLOAD RETURNDATASIZE PUSH1 0x1F NOT PUSH1 0x1F DUP3 ADD AND DUP3 ADD DUP1 PUSH1 0x40 MSTORE POP DUP2 ADD SWAP1 PUSH2 0x159 SWAP2 SWAP1 PUSH2 0x360 JUMP JUMPDEST POP POP POP SWAP2 POP POP DUP1 SWAP2 POP POP SWAP1 JUMP JUMPDEST DUP1 PUSH1 0x2 DUP2 SWAP1 SSTORE POP POP JUMP JUMPDEST PUSH1 0x0 DUP1 PUSH1 0x1 PUSH1 0x0 SWAP1 SLOAD SWAP1 PUSH2 0x100 EXP SWAP1 DIV PUSH20 0xFFFFFFFFFFFFFFFFFFFFFFFFFFFFFFFFFFFFFFFF AND PUSH20 0xFFFFFFFFFFFFFFFFFFFFFFFFFFFFFFFFFFFFFFFF AND PUSH4 0xFEAF968C PUSH1 0x40 MLOAD DUP2 PUSH4 0xFFFFFFFF AND PUSH1 0xE0 SHL DUP2 MSTORE PUSH1 0x4 ADD PUSH1 0xA0 PUSH1 0x40 MLOAD DUP1 DUP4 SUB DUP2 DUP7 GAS STATICCALL ISZERO DUP1 ISZERO PUSH2 0x1E0 JUMPI RETURNDATASIZE PUSH1 0x0 DUP1 RETURNDATACOPY RETURNDATASIZE PUSH1 0x0 REVERT JUMPDEST POP POP POP POP PUSH1 0x40 MLOAD RETURNDATASIZE PUSH1 0x1F NOT PUSH1 0x1F DUP3 ADD AND DUP3 ADD DUP1 PUSH1 0x40 MSTORE POP DUP2 ADD SWAP1 PUSH2 0x204 SWAP2 SWAP1 PUSH2 0x360 JUMP JUMPDEST POP POP POP SWAP2 POP POP DUP1 SWAP2 POP POP SWAP1 JUMP JUMPDEST PUSH1 0x2 SLOAD DUP2 JUMP JUMPDEST PUSH1 0x0 DUP2 SWAP1 POP SWAP2 SWAP1 POP JUMP JUMPDEST PUSH2 0x22A DUP2 PUSH2 0x217 JUMP JUMPDEST DUP3 MSTORE POP POP JUMP JUMPDEST PUSH1 0x0 PUSH1 0x20 DUP3 ADD SWAP1 POP PUSH2 0x245 PUSH1 0x0 DUP4 ADD DUP5 PUSH2 0x221 JUMP JUMPDEST SWAP3 SWAP2 POP POP JUMP JUMPDEST PUSH1 0x0 DUP1 REVERT JUMPDEST PUSH1 0x0 DUP2 SWAP1 POP SWAP2 SWAP1 POP JUMP JUMPDEST PUSH2 0x263 DUP2 PUSH2 0x250 JUMP JUMPDEST DUP2 EQ PUSH2 0x26E JUMPI PUSH1 0x0 DUP1 REVERT JUMPDEST POP JUMP JUMPDEST PUSH1 0x0 DUP2 CALLDATALOAD SWAP1 POP PUSH2 0x280 DUP2 PUSH2 0x25A JUMP JUMPDEST SWAP3 SWAP2 POP POP JUMP JUMPDEST PUSH1 0x0 PUSH1 0x20 DUP3 DUP5 SUB SLT ISZERO PUSH2 0x29C JUMPI PUSH2 0x29B PUSH2 0x24B JUMP JUMPDEST JUMPDEST PUSH1 0x0 PUSH2 0x2AA DUP5 DUP3 DUP6 ADD PUSH2 0x271 JUMP JUMPDEST SWAP2 POP POP SWAP3 SWAP2 POP POP JUMP JUMPDEST PUSH2 0x2BC DUP2 PUSH2 0x250 JUMP JUMPDEST DUP3 MSTORE POP POP JUMP JUMPDEST PUSH1 0x0 PUSH1 0x20 DUP3 ADD SWAP1 POP PUSH2 0x2D7 PUSH1 0x0 DUP4 ADD DUP5 PUSH2 0x2B3 JUMP JUMPDEST SWAP3 SWAP2 POP POP JUMP JUMPDEST PUSH1 0x0 PUSH10 0xFFFFFFFFFFFFFFFFFFFF DUP3 AND SWAP1 POP SWAP2 SWAP1 POP JUMP JUMPDEST PUSH2 0x2FC DUP2 PUSH2 0x2DD JUMP JUMPDEST DUP2 EQ PUSH2 0x307 JUMPI PUSH1 0x0 DUP1 REVERT JUMPDEST POP JUMP JUMPDEST PUSH1 0x0 DUP2 MLOAD SWAP1 POP PUSH2 0x319 DUP2 PUSH2 0x2F3 JUMP JUMPDEST SWAP3 SWAP2 POP POP JUMP JUMPDEST PUSH2 0x328 DUP2 PUSH2 0x217 JUMP JUMPDEST DUP2 EQ PUSH2 0x333 JUMPI PUSH1 0x0 DUP1 REVERT JUMPDEST POP JUMP JUMPDEST PUSH1 0x0 DUP2 MLOAD SWAP1 POP PUSH2 0x345 DUP2 PUSH2 0x31F JUMP JUMPDEST SWAP3 SWAP2 POP POP JUMP JUMPDEST PUSH1 0x0 DUP2 MLOAD SWAP1 POP PUSH2 0x35A DUP2 PUSH2 0x25A JUMP JUMPDEST SWAP3 SWAP2 POP POP JUMP JUMPDEST PUSH1 0x0 DUP1 PUSH1 0x0 DUP1 PUSH1 0x0 PUSH1 0xA0 DUP7 DUP9 SUB SLT ISZERO PUSH2 0x37C JUMPI PUSH2 0x37B PUSH2 0x24B JUMP JUMPDEST JUMPDEST PUSH1 0x0 PUSH2 0x38A DUP9 DUP3 DUP10 ADD PUSH2 0x30A JUMP JUMPDEST SWAP6 POP POP PUSH1 0x20 PUSH2 0x39B DUP9 DUP3 DUP10 ADD PUSH2 0x336 JUMP JUMPDEST SWAP5 POP POP PUSH1 0x40 PUSH2 0x3AC DUP9 DUP3 DUP10 ADD PUSH2 0x34B JUMP JUMPDEST SWAP4 POP POP PUSH1 0x60 PUSH2 0x3BD DUP9 DUP3 DUP10 ADD PUSH2 0x34B JUMP JUMPDEST SWAP3 POP POP PUSH1 0x80 PUSH2 0x3CE DUP9 DUP3 DUP10 ADD PUSH2 0x30A JUMP JUMPDEST SWAP2 POP POP SWAP3 SWAP6 POP SWAP3 SWAP6 SWAP1 SWAP4 POP JUMP INVALID LOG2 PUSH5 0x6970667358 0x22 SLT KECCAK256 OR CODECOPY KECCAK256 ORIGIN 0xCF CODESIZE 0xB5 SWAP1 0x49 0xAF 0x1F 0x4A NOT SWAP6 0x5F CALL SIGNEXTEND 0xCF 0xAE EXTCODESIZE SHL EXTCODECOPY 0xA8 0xD5 0xDA DUP2 SGT TIMESTAMP 0xDA SWAP5 0xAD SUB PUSH5 0x736F6C6343 STOP ADDMOD SLT STOP CALLER "
				},
				"gasEstimates": {
					"creation": {
						"codeDepositCost": "208200",
						"executionCost": "48785",
						"totalCost": "256985"
					},
					"external": {
						"getChainlinkDataFeedLatestAnswerBTC()": "infinite",
						"getChainlinkDataFeedLatestAnswerETH()": "infinite",
						"getdatafeedvalor(uint256)": "22520",
						"moneda()": "2473"
					}
				},
				"methodIdentifiers": {
					"getChainlinkDataFeedLatestAnswerBTC()": "b8bef1fa",
					"getChainlinkDataFeedLatestAnswerETH()": "4c186a36",
					"getdatafeedvalor(uint256)": "75bf0e54",
					"moneda()": "f1cc1268"
				}
			},
			"storageLayout": {
				"storage": [
					{
						"astId": 52,
						"contract": "docs.chain.link/samples/DataFeeds/DataConsumerV3.sol:DataConsumerV3",
						"label": "dataFeedETH",
						"offset": 0,
						"slot": "0",
						"type": "t_contract(AggregatorV3Interface)45"
					},
					{
						"astId": 55,
						"contract": "docs.chain.link/samples/DataFeeds/DataConsumerV3.sol:DataConsumerV3",
						"label": "dataFeedBTC",
						"offset": 0,
						"slot": "1",
						"type": "t_contract(AggregatorV3Interface)45"
					},
					{
						"astId": 74,
						"contract": "docs.chain.link/samples/DataFeeds/DataConsumerV3.sol:DataConsumerV3",
						"label": "moneda",
						"offset": 0,
						"slot": "2",
						"type": "t_uint256"
					}
				],
				"types": {
					"t_contract(AggregatorV3Interface)45": {
						"encoding": "inplace",
						"label": "contract AggregatorV3Interface",
						"numberOfBytes": "20"
					},
					"t_uint256": {
						"encoding": "inplace",
						"label": "uint256",
						"numberOfBytes": "32"
					}
				}
			},
			"userdoc": {
				"kind": "user",
				"methods": {
					"constructor": {
						"notice": "Network: Sepolia Aggregator: BTC/USD Address: 0x1b44F3514812d835EB1BDB0acB33d3fA3351Ee43"
					},
					"getChainlinkDataFeedLatestAnswerETH()": {
						"notice": "Returns the latest answer."
					}
				},
				"notice": "If you are reading data feeds on L2 networks, you must check the latest answer from the L2 Sequencer Uptime Feed to ensure that the data is accurate in the event of an L2 sequencer outage. See the https://docs.chain.link/data-feeds/l2-sequencer-feeds page for details.",
				"version": 1
			}
		}
	}
}